:020000040000FA
:100000008316003086001F3085008312FF30860083
:1000100000309C00382005180E281328FF30860079
:1000200000309C000A2885181A2816289C0A1C1ED5
:1000300023281E289C039C1E2328212800309C0076
:1000400023280F309C00262086000A281C088207DF
:10005000C034F934A434B034993492348234F8344E
:100060008034903488348334C634A13486348E345A
:10007000F7309A00AA309B009B0F3C289A0F3B2830
:02008000080076
:00000001FF
