:020000040000FA
:0400000000001828BC
:040004000034003490
:08000800801A16280000001AFE
:100010001228000080191428000000191028000080
:1000200000000900000009000000090000000900AC
:10003000831203138501831606309F00CF3085009D
:10004000831203138601831606309F00CF3086008B
:10005000831203138701831606309F00CF30870079
:10006000831203138501831606309F00CF3088006A
:10007000831203138501831606309F00CF30890059
:02400E00723FFF
:00000001FF
