:020000040000FA
:1000000007280313831208000313831608008316BE
:1000100005149F151F159F141F101F179F13831280
:100020009F171F139F121F129F111F1403110310FC
:100030001F151A281F191A2883161E088312803CC0
:1000400003192528031C2828432886191628522816
:100050000311031083161E088312CC3C03193328A6
:10006000031C3428422816280311031083161E0887
:100070008312FA3C03193F28031C41284028162804
:100080001628162816280311031083161E0883123B
:10009000003C03194C284D2850281628000016282B
:0800A0000000162800001628DC
:00000001FF
