:020000040000FA
:06000000031383123F28E8
:08000800031383128C1A092076
:1000100009008001A1018C1E092814201808A100E4
:100020001A08A000252008001819192898181E2859
:1000300008001808A1001A08A20009281808A10041
:100040001A08A30018121816092801302005001CF0
:100050002B2830200800971117119710171008004F
:10006000031103101E08333C03192B28031C3A28E4
:100070002B200800971517159714171408008501F1
:1000800086018701880189010313831606112F3029
:10009000850005139F111F119F141F101F179F1319
:1000A00002309C001C1607138717813099002630F8
:1000B0009800C0308B008C16031383129030980088
:1000C0008C12831203139B30920007119F171F138A
:1000D0009F161F129F111F143E309500971617127E
:1000E000921012141215CC201F15CC201F1976283F
:1000F000031103101E08803C03198128031C832868
:100100009F28AE207328031103101E08CD3C03194D
:100110008C28031C8E289D28AE2073280311031001
:100120001E08FF3C03199728031C9B289928B4201C
:100130007328AE207328B4207328AE2073280311CF
:1001400003101E08333C0319A828031CAA28AC2856
:10015000B6207328AE207328B620732803138316A5
:100160001C1FC4200615080006110800971117115E
:10017000971017100800031103101E08333C0319D1
:10018000B620031C3A28B620B420031383161C1F84
:10019000C428031383120800E120E120E120E120BC
:1001A000E120E120E120E120E120E120E120E12047
:1001B000E120E120E120E120E120E120E120E12037
:1001C0000800C830E5283230E528A800B430A70080
:1001D0000000A70BFB28A80BE62808000000000081
:1001E00000000A30F8280330F8280330F8280530DA
:1001F000A800A530A700A70BFB28A80BF92808002A
:10020000A43000000C2951300C291F300C290E306D
:1002100000000C2906300C29A700A70B0D290800A7
:0402200000000800D2
:02400E00723FFF
:00000001FF
