:020000040000FA
:0600000003138312052822
:0800080009000313831607131E
:1000100087178130990026309800C0308B008C16ED
:1000200003138312903098008C12831605149F15C9
:100030001F159F141F101F179F13831203139F1761
:100040001F139F121F129F111F148A201E081F15B5
:100050008A201F192928031103101E08803C031948
:100060003428031C372863287120342825280311DD
:1000700003101E08CD3C03194028031C43286028A8
:10008000712040282528031103101E08FF3C031986
:100090004C28031C5D284F287C204C2825281E084E
:1000A000200203195728031C5A28572825287C208A
:1000B0005728252871205A2825287C205D282528A6
:1000C000712060282528031103101E08003C031925
:1000D0006C28031C6E286C287C20252871206E2833
:1000E00025281E08200203197828031C08007828F8
:1000F00001309900872025281E08200203190800D6
:10010000031C8328080000309900872025280C1E36
:10011000872808009F209F209F209F209F209F20AE
:100120009F209F209F209F209F209F209F209F20D7
:100130009F209F209F209F209F209F200800C83045
:10014000A3283230A328A800B430A7000000A70BD2
:10015000B928A80BA42808000000000000000A30FD
:10016000B6280330B6280330B6280530A800A530DD
:10017000A700A70BB928A80BB7280800A4300000D7
:10018000CA285130CA281F30CA280E300000CA2899
:100190000630CA28A700A70BCB28080000000800DB
:02400E00723FFF
:00000001FF
